:0400000015EF3FF0C9
:107E20003F065B4F666D7D077F6F200EF66E7E0E00
:107E3000F76E000EF86E00EE19F010EE0AF0090071
:107E4000F5CFEEFFE550E150FAE100018AEF3FF097
:107E5000000E066E04BE31EF3FF02FEF3FF037EF1C
:107E60003FF0036C041ED8B0042A010E066E02BE59
:107E70003EEF3FF03CEF3FF044EF3FF0016C021E5D
:107E8000D8B0022A010E061A000E086E000E076E08
:107E900003500410D8B44FEF3FF051EF3FF079EFAB
:107EA0003FF0010E056E59EF3FF0D89003360436CF
:107EB000052A04AE5EEF3FF060EF3FF055EF3FF074
:107EC000D890073608360350015C04500258D8A0F9
:107ED0006CEF3FF06EEF3FF073EF3FF00350015E49
:107EE0000450025A0780D89004320332052E60EF06
:107EF0003FF00650D8B47FEF3FF081EF3FF085EFC1
:107F00003FF0076C081ED8B0082A07C001F008C06F
:107F100002F012000F0EC16E000E936E000E956EF1
:107F200094809482000E8A6E000E8B6E000E8C6E12
:107F3000000E186E20EE19F010EE0AF0090EDBCFDD
:107F4000E3FFE806FCE2000E156E000E146E15BE8F
:107F5000B3EF3FF0155009E10B0E145CD8A0B3EF5E
:107F60003FF0B5EF3FF0C4EF3FF0000E156E000E8E
:107F7000146E182A630E1864C0EF3FF0C2EF3FF092
:107F8000C4EF3FF0000E186E144A152A18C001F015
:107F9000026A000E046E0A0E036E28EC3FF00150D8
:107FA000176E1750F60DF3501824166E0A0E16248D
:107FB000D96EDA6A000EDA22DF508A6E010E8C6EFC
:107FC000340E096EF20EE82EFED7092EFCD7000EF5
:107FD0008C6E0A0E1724D96EDA6A000EDA22DF5090
:107FE0008A6E020E8C6E340E096EF20EE82EFED7EB
:107FF000092EFCD7000E8C6EA7EF3FF000EF00F0CB
:020000040020DA
:08000000FFFFFFFFFFFFFFFF00
:020000040030CA
:0E000000008C1F1FFF8385FF0FC00FE00F4015
:00000001FF
