:04000000C4EF3FF01A
:107F88000001C7EF3FF00F0EC16E938093928A9065
:107F98008A92000E026E81A0D4EF3FF0D6EF3FF038
:107FA800F0EF3FF081B0DBEF3FF0DDEF3FF0D6EFD1
:107FB8003FF0100E016E940EE82EFED7012EFCD76E
:107FC80000D00250D8B4EBEF3FF0EEEF3FF0010ED7
:107FD800EFEF3FF0000E026E0250D8B4F6EF3FF01C
:107FE800F8EF3FF0FBEF3FF08A82CFEF3FF08A9245
:087FF800CFEF3FF000EF00F0B5
:020000040020DA
:08000000FFFFFFFFFFFFFFFF00
:020000040030CA
:0E00000001051F1EFF8385FF0FC00FE00F409C
:00000001FF
