:04000000BAEF3FF024
:107F6A003F065B4F666D7D077F6F6A0EF66E7F0E6A
:107F7A00F76E000EF86E00EE0EF010EE0AF0090031
:107F8A00F5CFEEFFE550E150FAE10001CDEF3FF009
:107F9A000F0EC16E000E936E000E8A6E000E0D6EED
:107FAA0020EE0EF010EE03F0090EDBCFE3FFE80639
:107FBA00FCE2030E0D24D96EDA6A000EDA22DF50D3
:107FCA008A6E060E026E130E016EAE0EE82EFED7F4
:107FDA00012EFCD7022EFAD70D2A090E0D64F8EFEE
:107FEA003FF0FAEF3FF0DEEF3FF0000E0D6EDEEFEE
:067FFA003FF000EF00F073
:020000040020DA
:08000000FFFFFFFFFFFFFFFF00
:020000040030CA
:0E000000000B1F1EFF8385FF0FC00FE00F4097
:00000001FF
