:0400000080EF3BF062
:1076F6003F065B4F666D7D077F6FF60EF66E760E64
:10770600F76E000EF86E00EE37F010EE0AF0090084
:10771600F5CFEEFFE550E150FAE1446A436A426A6A
:10772600416A00017CEF3CF0000E066E04BEA0EF3D
:107736003BF09EEF3BF0A6EF3BF0036C041ED8B087
:10774600042A010E066E02BEADEF3BF0ABEF3BF036
:10775600B3EF3BF0016C021ED8B0022A010E061AE6
:10776600000E086E000E076E03500410D8B4BEEF6C
:107776003BF0C0EF3BF0E8EF3BF0010E056EC8EFC3
:107786003BF0D89003360436052A04AECDEF3BF025
:10779600CFEF3BF0C4EF3BF0D890073608360350E6
:1077A600015C04500258D8A0DBEF3BF0DDEF3BF064
:1077B600E2EF3BF00350015E0450025A0780D89076
:1077C60004320332052ECFEF3BF00650D8B4EEEF6D
:1077D6003BF0F0EF3BF0F4EF3BF0076C081ED8B03F
:1077E600082A07C001F008C002F012002A342B3420
:1077F600316E3150D8A402EF3CF004EF3CF00EEFAE
:107806003CF0000E286E000E296E000E2A6E000E49
:107816002B6E7BEF3CF028C02CF029C02DF02AC03F
:107826002EF02BC02FF0200E1EEF3CF0D8902F32FA
:107836002E322D322C32E82E19EF3CF02C50306EC1
:107846002A8EFF0E2816FF0E2916FF0E2A16000E88
:107856002B16960E315E31BE35EF3CF033EF3CF021
:107866004BEF3CF03150800A970FD8B03DEF3CF01B
:107876003FEF3CF041EF3CF004EF3CF0D8902B3268
:107886002A3229322832313E41EF3CF063EF3CF098
:107896001F0E316451EF3CF053EF3CF05BEF3CF0D0
:1078A60004EF3CF0D890283629362A362B36310696
:1078B6003150D8A461EF3CF063EF3CF055EF3CF05B
:1078C6003050D8B469EF3CF06BEF3CF073EF3CF00E
:1078D6002B1E2A1E291E286C000E29222A222B2244
:1078E60028C028F029C029F02AC02AF02BC02BF086
:1078F60012000E0EC16E000EC26EA50EC06EC280C4
:10790600000E956E000E936E000E8C6E000E8A6E43
:10791600C282C2B291EF3CF093EF3CF08CEF3CF0A8
:107926000A0E136E280E146EA00E156E3B0E166E02
:10793600C3CF01F0C4CF02F0036A046A000E11EC53
:107946003DF001C00FF002C010F003C011F004C0FA
:1079560012F0EBEC3DF00FC033F010C034F011C064
:1079660035F012C036F0000E136E000E146E200EA7
:10797600156E410E166E33C00FF034C010F035C0D0
:1079860011F036C012F0EBEC3DF00FC028F010C03D
:1079960029F011C02AF012C02BF0F9EC3BF028C0F8
:1079A60041F029C042F041C001F042C002F0000E91
:1079B600046E0A0E036E97EC3BF00150436E435083
:1079C600F60DF3504124446E370E4424D96EDA6A1C
:1079D600000EDA22DF508A6E010E8C6E340E326E85
:1079E600F20EE82EFED7322EFCD7000E8C6E370E26
:1079F6004324D96EDA6A000EDA22DF508A6E020E4E
:107A06008C6E340E326EF20EE82EFED7322EFCD776
:107A1600000E8C6E8BEF3CF000EF00F0096E095003
:107A2600D8B418EF3DF01AEF3DF03CEF3DF004BE40
:107A360021EF3DF01FEF3DF03CEF3DF001C005F0BA
:107A460002C006F003C007F004C008F0051E061EBB
:107A5600071E081E052A000E06220722082205C058
:107A66000BF006C00CF007C00DF008C00EF044EF96
:107A76003DF001C00BF002C00CF003C00DF004C0D5
:107A86000EF00150021003100410D8A44DEF3DF083
:107A96004FEF3DF059EF3DF0000E016E000E026E05
:107AA600000E036E000E046EEAEF3DF0960E0A6EAF
:107AB60063EF3DF00A2AD8900E320D320C320B32AB
:107AC600000E0B14056E000E0C14066E000E0D143F
:107AD600076EFE0E0E14086E0550061007100810ED
:107AE600D8A478EF3DF07AEF3DF05DEF3DF088EFFA
:107AF6003DF00A2A010E0B26000E0C220D220E2244
:107B0600D8900E320D320C320B32000E0B14056E6D
:107B1600000E0C14066E000E0D14076EFF0E0E14EA
:107B2600086E0550061007100810D8A49DEF3DF00A
:107B36009FEF3DF07CEF3DF0A7EF3DF00A06D890B1
:107B46000B360C360D360E360DBEACEF3DF0AEEFF5
:107B56003DF0B6EF3DF0020E0A60B4EF3DF0B6EF31
:107B66003DF0A1EF3DF00AB0BBEF3DF0BDEF3DF0BB
:107B7600BEEF3DF00D9ED8900A320AC005F0066AA7
:107B8600076A086A05C008F0076A066A056A0550AA
:107B96000B1206500C1207500D1208500E12095007
:107BA600D8B4D8EF3DF0DAEF3DF0E2EF3DF004BE99
:107BB600E1EF3DF0DFEF3DF0E2EF3DF00E8E0BC062
:107BC60001F00CC002F00DC003F00EC004F012006C
:107BD6001250800B1B6E12501224216E11AEF6EF5E
:107BE6003DF0F8EF3DF0F9EF3DF021802150D8B49B
:107BF600FFEF3DF001EF3EF014EF3EF02128D8A450
:107C060007EF3EF009EF3EF011EF3EF0000E0F6E6B
:107C1600000E106E000E116E000E126E118E1CEF0D
:107C26003EF0000E0F6E000E106E000E116E000E6E
:107C3600126E1650800B1B1A16501624206E15AEA7
:107C460027EF3EF029EF3EF02AEF3EF0208020504D
:107C5600D8B430EF3EF032EF3EF045EF3EF020284C
:107C6600D8A438EF3EF03AEF3EF042EF3EF0000E79
:107C7600136E000E146E000E156E000E166E158E27
:107C86004DEF3EF0000E136E000E146E000E156ED4
:107C9600000E166E2050D8B453EF3EF055EF3EF06E
:107CA6005DEF3EF02150D8A45BEF3EF05DEF3EF075
:107CB60067EF3EF0000E0F6E000E106E000E116E96
:107CC600000E126EFFEF3FF015500F02F3CF26F0B5
:107CD600F4CF27F026501C6E1D6A1E6A1F6A2750B5
:107CE600226E236A246A256A14501002F3CF26F006
:107CF600F4CF27F026501C26000E1D221E221F221E
:107D060027502226000E2322242225221350110258
:107D1600F3CF26F0F4CF27F026501C26000E1D22A6
:107D26001E221F2227502226000E2322242225222D
:107D36001EC01FF01DC01EF01CC01DF01C6A135093
:107D46001002F3CF26F0F4CF27F026501C2627503A
:107D56001D22000E1E22000E1F2214500F02F3CF0A
:107D660026F0F4CF27F026501C2627501D22000EA1
:107D76001E22000E1F221EC01FF01DC01EF01CC0BA
:107D86001DF01C6A13500F02F3CF26F0F4CF27F034
:107D960026501C2627501D22000E1E22000E1F22D2
:107DA60015501002F3CF26F0F4CF27F026502226E6
:107DB60027502322000E2422000E252214501102E1
:107DC600F3CF26F0F4CF27F0265022262750232281
:107DD600000E2422000E252215501102F3CF26F0A4
:107DE600F4CF27F02650176E2750186E196A1A6AB4
:107DF60019C01AF018C019F017C018F0176A1750F2
:107E0600222618502322195024221A5025221CC03B
:107E160017F01DC018F01EC019F01FC01AF0190E79
:107E26001AEF3FF0D8901A32193218321732E82E6C
:107E360015EF3FF0175022261850232219502422FE
:107E46001A5025221EC01FF01DC01EF01CC01DF0BA
:107E56001C6A205021C017F0186A1726000E182237
:107E6600820E1724266EFF0E1820276E50EF3FF065
:107E7600D89022362336243625361FAE45EF3FF0FE
:107E860047EF3FF048EF3FF02280D8901C361D3672
:107E96001E361F362606D8A0270624AE55EF3FF01D
:107EA60057EF3FF03BEF3FF0000E206E1FAE5EEF48
:107EB6003FF060EF3FF084EF3FF0FF0E1C14176EAB
:107EC600FF0E1D14186EFF0E1E14196E7F0E1F1462
:107ED6001A6E1750181019101A10D8B475EF3FF013
:107EE60077EF3FF07BEF3FF0010E206E84EF3FF01F
:107EF60022A080EF3FF082EF3FF084EF3FF077EF74
:107F06003FF02050D8B48AEF3FF08CEF3FF0B0EF4F
:107F16003FF0010E2226000E23222422252225A030
:107F260097EF3FF099EF3FF0B0EF3FF022C017F028
:107F360023C018F024C019F025C01AF01A341A32DA
:107F460019321832173217C022F018C023F019C0A0
:107F560024F01AC025F0264A272A27BEBBEF3FF099
:107F6600275008E12628D8A0BBEF3FF0BDEF3FF031
:107F7600C7EF3FF0000E226E000E236E800E246EB9
:107F86007F0E256EF5EF3FF027BED4EF3FF027506A
:107F960006E12604D8B0D2EF3FF0D4EF3FF0E0EF91
:107FA6003FF0000E226E000E236E000E246E000EB1
:107FB600256E000E1B6EF5EF3FF026C021F0FF0E7A
:107FC6002216FF0E23167F0E2416000E251621A05C
:107FD600EFEF3FF0F1EF3FF0F2EF3FF0248ED89055
:107FE6002130256E1B50251222C00FF023C010F041
:0A7FF60024C011F025C012F01200A3
:020000040020DA
:08000000FFFFFFFFFFFFFFFF00
:020000040030CA
:0E000000008C1F1FFF8385FF0FC00FE00F4015
:00000001FF
