:04000000ABEF3FF033
:107F56000001AEEF3FF00F0EC16E000E936E9480DF
:107F66009482000E8A6E000E8B6E000E026E82A048
:107F7600BFEF3FF0C1EF3FF0DAEF3FF082B0C6EF60
:107F86003FF0C8EF3FF0C1EF3FF09C0E016ED70EF9
:107F9600E82EFED7012EFCD700F00228D8B4D6EF83
:107FA6003FF0D8EF3FF0DAEF3FF00228026E82A2F0
:107FB600DFEF3FF0E1EF3FF0FAEF3FF082B2E6EF9E
:107FC6003FF0E8EF3FF0E1EF3FF09C0E016ED70E79
:107FD600E82EFED7012EFCD700F00250D8B4F6EFFB
:107FE6003FF0F8EF3FF0FAEF3FF00204026E02C0F6
:0A7FF6008AFFBAEF3FF000EF00F041
:020000040020DA
:08000000FFFFFFFFFFFFFFFF00
:020000040030CA
:0E00000001051F1EFF8385FF0FC00FE00F409C
:00000001FF
