:04000000C1EF3FF01D
:107F82000001C4EF3FF00F0EC16E000E936E94809D
:107F9200000E8A6E000E8B6E000E026E82A0D4EF6F
:107FA2003FF0D6EF3FF0F0EF3FF082B0DBEF3FF073
:107FB200DDEF3FF0D6EF3FF09C0E016ED70EE82EBC
:107FC200FED7012EFCD700F00250D8B4EBEF3FF001
:107FD200EEEF3FF0010EEFEF3FF0000E026E0250A7
:107FE200D8B4F6EF3FF0F8EF3FF0FBEF3FF08A80B6
:0E7FF200CFEF3FF08A90CFEF3FF000EF00F0AE
:020000040020DA
:08000000FFFFFFFFFFFFFFFF00
:020000040030CA
:0E00000001051F1EFF8385FF0FC00FE00F409C
:00000001FF
