:040000008EEF3FF050
:107F12003F065B4F666D7D077F6F120EF66E7F0E1A
:107F2200F76E000EF86E00EE0DF010EE0AF009008A
:107F3200F5CFEEFFE550E150FAE10001A1EF3FF08D
:107F42000F0EC16E000E936E94809482000E8A6EA4
:107F5200000E8B6E000E0C6E20EE0DF010EE02F095
:107F6200090EDBCFE3FFE806FCE282A0BBEF3FF0A5
:107F7200BDEF3FF0D5EF3FF082B0C2EF3FF0C4EF6C
:107F82003FF0BDEF3FF00D0E016EFC0EE82EFED766
:107F9200012EFCD7090E0C60D1EF3FF0D3EF3FF07A
:107FA200D5EF3FF00C280C6E82A2DAEF3FF0DCEF47
:107FB2003FF0F4EF3FF082B2E1EF3FF0E3EF3FF04A
:107FC200DCEF3FF00D0E016EFC0EE82EFED7012E07
:107FD200FCD70C50D8B4F0EF3FF0F2EF3FF0F4EFE3
:107FE2003FF00C040C6E020E0C24D96EDA6A000EFD
:0E7FF200DA22DF508A6EB6EF3FF000EF00F0AB
:020000040020DA
:08000000FFFFFFFFFFFFFFFF00
:020000040030CA
:0E000000008C1F1FFF8385FF0FC00FE00F4015
:00000001FF
