:040000008CEF3FF052
:107F0E003F065B4F666D7D077F6F0E0EF66E7F0E22
:107F1E00F76E000EF86E00EE0DF010EE0AF009008E
:107F2E00F5CFEEFFE550E150FAE100019FEF3FF093
:107F3E000F0EC16E000E936E94809482000E8A6EA8
:107F4E00000E8B6E000E0C6E20EE0DF010EE02F099
:107F5E00090EDBCFE3FFE806FCE282A0B9EF3FF0AB
:107F6E00BBEF3FF0D4EF3FF082B0C0EF3FF0C2EF77
:107F7E003FF0BBEF3FF09C0E016ED70EE82EFED702
:107F8E00012EFCD700F0090E0C60D0EF3FF0D2EFBF
:107F9E003FF0D4EF3FF00C280C6E82A2D9EF3FF0E9
:107FAE00DBEF3FF0F4EF3FF082B2E0EF3FF0E2EFB5
:107FBE003FF0DBEF3FF09C0E016ED70EE82EFED7A2
:107FCE00012EFCD700F00C50D8B4F0EF3FF0F2EFDA
:107FDE003FF0F4EF3FF00C040C6E020E0C24D96E41
:107FEE00DA6A000EDA22DF508A6EB4EF3FF000EF4D
:027FFE0000F091
:020000040020DA
:08000000FFFFFFFFFFFFFFFF00
:020000040030CA
:0E00000001051F1EFF8385FF0FC00FE00F409C
:00000001FF
